{
  "contractName": "Token",
  "abi": [
    {
      "inputs": [],
      "name": "decimals",
      "outputs": [
        {
          "internalType": "uint256",
          "name": "",
          "type": "uint256"
        }
      ],
      "stateMutability": "view",
      "type": "function"
    },
    {
      "inputs": [],
      "name": "name",
      "outputs": [
        {
          "internalType": "string",
          "name": "",
          "type": "string"
        }
      ],
      "stateMutability": "view",
      "type": "function"
    },
    {
      "inputs": [],
      "name": "symbol",
      "outputs": [
        {
          "internalType": "string",
          "name": "",
          "type": "string"
        }
      ],
      "stateMutability": "view",
      "type": "function"
    },
    {
      "inputs": [],
      "name": "totalSuppy",
      "outputs": [
        {
          "internalType": "uint256",
          "name": "",
          "type": "uint256"
        }
      ],
      "stateMutability": "view",
      "type": "function"
    }
  ],
  "bytecode": "0x6080604052683635c9adc5dea000006000556040518060400160405280600881526020017f4d7920546f6b656e0000000000000000000000000000000000000000000000008152506001908051906020019061005c9291906100c0565b506040518060400160405280600381526020017f544b4e0000000000000000000000000000000000000000000000000000000000815250600290805190602001906100a89291906100c0565b5060126003553480156100ba57600080fd5b506101c4565b8280546100cc90610192565b90600052602060002090601f0160209004810192826100ee5760008555610135565b82601f1061010757805160ff1916838001178555610135565b82800160010185558215610135579182015b82811115610134578251825591602001919060010190610119565b5b5090506101429190610146565b5090565b5b8082111561015f576000816000905550600101610147565b5090565b7f4e487b7100000000000000000000000000000000000000000000000000000000600052602260045260246000fd5b600060028204905060018216806101aa57607f821691505b602082108114156101be576101bd610163565b5b50919050565b610377806101d36000396000f3fe608060405234801561001057600080fd5b506004361061004c5760003560e01c806306fdde0314610051578063313ce5671461006f57806395d89b411461008d578063d524ccbb146100ab575b600080fd5b6100596100c9565b604051610066919061028a565b60405180910390f35b610077610157565b60405161008491906102c5565b60405180910390f35b61009561015d565b6040516100a2919061028a565b60405180910390f35b6100b36101eb565b6040516100c091906102c5565b60405180910390f35b600180546100d69061030f565b80601f01602080910402602001604051908101604052809291908181526020018280546101029061030f565b801561014f5780601f106101245761010080835404028352916020019161014f565b820191906000526020600020905b81548152906001019060200180831161013257829003601f168201915b505050505081565b60035481565b6002805461016a9061030f565b80601f01602080910402602001604051908101604052809291908181526020018280546101969061030f565b80156101e35780601f106101b8576101008083540402835291602001916101e3565b820191906000526020600020905b8154815290600101906020018083116101c657829003601f168201915b505050505081565b60005481565b600081519050919050565b600082825260208201905092915050565b60005b8381101561022b578082015181840152602081019050610210565b8381111561023a576000848401525b50505050565b6000601f19601f8301169050919050565b600061025c826101f1565b61026681856101fc565b935061027681856020860161020d565b61027f81610240565b840191505092915050565b600060208201905081810360008301526102a48184610251565b905092915050565b6000819050919050565b6102bf816102ac565b82525050565b60006020820190506102da60008301846102b6565b92915050565b7f4e487b7100000000000000000000000000000000000000000000000000000000600052602260045260246000fd5b6000600282049050600182168061032757607f821691505b6020821081141561033b5761033a6102e0565b5b5091905056fea26469706673582212200d5f3e7413c29f18df2b82e104625ed472b51fa7afee6bd8f0c066e5994f7ff664736f6c634300080a0033",
  "immutableReferences": {},
  "source": "// SPDX-License-Identifier: MIT\r\npragma solidity ^0.8.10;\r\n\r\ncontract Token {\r\n    uint public totalSuppy = 1000 * 10 ** 18;\r\n    string public name = \"My Token\";\r\n    string public symbol = \"TKN\";\r\n    uint public decimals = 18;\r\n\r\n}",
  "sourcePath": "C:\\xampp\\htdocs\\NFT-GAME\\truffle-tutorial\\contracts\\Token.sol",
  "compiler": {
    "name": "solc",
    "version": "0.8.10+commit.fc410830.Emscripten.clang"
  },
  "schemaVersion": "3.4.4",
  "updatedAt": "2022-01-23T15:02:38.215Z",
  "devdoc": {
    "kind": "dev",
    "methods": {},
    "version": 1
  },
  "userdoc": {
    "kind": "user",
    "methods": {},
    "version": 1
  }
}